:020000040800F2
:1000000000400020190200085D0200085D0200089F
:1000100000000000000000000000000000000000E0
:100020000000000000000000000000005D02000869
:1000300000000000000000005D0200085D020008F2
:100040005D0200085D0200085D0200085D02000814
:100050005D0200085D0200085D0200085D02000804
:100060005D0200085D0200085D0200085D020008F4
:100070005D0200085D0200085D0200085D020008E4
:100080005D0200085D0200085D0200085D020008D4
:100090005D0200085D0200085D0200085D020008C4
:1000A0005D0200085D0200085D0200085D020008B4
:1000B0005D0200085D0200085D0200085D020008A4
:1000C0005FF808F180B500AF104B1B6810491800AD
:1000D00000F0E6F903001A000E4B1A600E4B0E4AB0
:1000E000D26910210A43DA610C4A0C4B1B889BB27F
:1000F00001210B439BB21380084A064B1B689BB23D
:10010000013B9BB21385C046BD4680BD0000002068
:1001100040420F0018000020001002400010004074
:1001200080B582B000AF0200BB1D1A80094BBA1D1A
:1001300012886432DA62074B00225A62C046054BCD
:100140005A6ABB1D1B889A42F9D1C046BD4602B00F
:1001500080BDC0460010004080B584B000AF78601C
:100160000023FB601FE0144A134B9B8A9BB2802143
:100170000B439BB293827B689BB21800FFF7D0FFC2
:100180000D4A0D4B9B8A9BB280218B439BB293827D
:100190007B689BB2094AD31A9BB21800FFF7C0FFD5
:1001A000FB680133FB60FB68054A9342DBDDC04618
:1001B000BD4604B080BDC04600040048204E00008B
:1001C0001F4E000080B500AF034B1800FFF7C4FFBF
:1001D000C046BD4680BDC046A406000080B500AF45
:1001E00000F03EF800F082F8094B094A526980217C
:1001F000C9020A435A61074B064A12688021C901A5
:100200000A431A60FFF75EFFFFF7DCFFFEE7C04618
:100210000010024000040048002103E00A4B5B5834
:100220004350043109480A4B42189A42F6D3094A0E
:1002300002E0002313600432074B9A42F9D300F026
:100240000FF8FFF7CBFF7047B8050008000000204B
:1002500014000020140000201C000020FEE7000015
:1002600080B500AF1B4B1B4A126801210A431A607C
:10027000184B184A526818490A405A60154B154ADB
:10028000126816490A401A60124B124A1268144941
:100290000A401A600F4B0F4A526812490A405A60CE
:1002A0000C4B0C4AD26A0F218A43DA62094B094A85
:1002B000126B0D490A401A63064B064A526B012124
:1002C0008A435A63034B00229A6000F079F8C046D3
:1002D000BD4680BD001002400CB8FFF8FFFFF6FEDF
:1002E000FFFFFBFFFFFFC0FFACFEFFFF80B584B048
:1002F00000AF0023FB600023BB6000237B60002372
:100300003B602A4B5B680C221340FB60FB68042BAC
:1003100007D0082B09D0002B31D1254B254A1A6074
:1003200031E0234B234A1A602DE0204B5A68F0231A
:100330009B031340BB601D4B5A68C0235B021340F4
:100340007B60BB689B0C0233BB607B68002B05D1D4
:10035000BB68194A5A43164B1A6014E0134BDB6A08
:100360000F22134001333B603968124800F098F8BF
:1003700003001A00BB685A430D4B1A6003E00C4B94
:100380000C4A1A60C046094B5B68F02213401B09F7
:100390000A4AD35CDBB2FB60054B1A68FB68DA40A3
:1003A000034B1A60C046BD4604B080BD0010024039
:1003B0000000002000127A0000093D000400002027
:1003C00080B582B000AF00237B6000233B60314BDF
:1003D000304A1268802149020A431A602D4B1A687C
:1003E00080239B0213403B607B6801337B603B684A
:1003F000002B04D17A68A023DB009A42EED1254B72
:100400001A6880239B02134002D001233B6001E065
:1004100000233B603B68012B38D11F4B11221A602F
:100420001C4B1C4A52685A601A4B1A4A52685A604E
:10043000184B184A526819490A405A60154B154A18
:100440005268882149030A435A60124B114A1268C4
:10045000802149040A431A60C0460E4B1A68802363
:100460009B041340F9D00B4B0A4A526803218A437C
:100470005A60084B074A526802210A435A60C04634
:10048000044B5B680C221340082BF9D1C046BD46D3
:1004900002B080BD0010024000200240FF7FC0FF7C
:1004A000002243088B4274D303098B425FD3030AB3
:1004B0008B4244D3030B8B4228D3030C8B420DD3C6
:1004C000FF22090212BA030C8B4202D31212090254
:1004D00065D0030B8B4219D300E0090AC30B8B4292
:1004E00001D3CB03C01A5241830B8B4201D38B0340
:1004F000C01A5241430B8B4201D34B03C01A5241E5
:10050000030B8B4201D30B03C01A5241C30A8B4227
:1005100001D3CB02C01A5241830A8B4201D38B0212
:10052000C01A5241430A8B4201D34B02C01A5241B6
:10053000030A8B4201D30B02C01A5241CDD2C30928
:100540008B4201D3CB01C01A524183098B4201D3A4
:100550008B01C01A524143098B4201D34B01C01A8F
:10056000524103098B4201D30B01C01A5241C30807
:100570008B4201D3CB00C01A524183088B4201D376
:100580008B00C01A524143088B4201D34B00C01A62
:100590005241411A00D20146524110467047FFE7CE
:1005A00001B5002000F006F802BDC0460029F7D0D2
:0805B00076E770477047C04672
:1005B800006CDC02000000000000000001020304DF
:0405C8000607080911
:0400000508000000EF
:00000001FF
