:020000040800F2
:10000000004000208D050008D1050008D10500083A
:1000100000000000000000000000000000000000E0
:10002000000000000000000000000000D1050008F2
:100030000000000000000000D105000805040008D1
:10004000D1050008D1050008D1050008D105000838
:10005000D1050008D1050008D1050008D105000828
:10006000D1050008D1050008D1050008D105000818
:10007000D1050008D1050008D1050008D105000808
:10008000D1050008D1050008D1050008D1050008F8
:10009000D1050008D1050008D1050008D1050008E8
:1000A000D1050008D1050008D1050008FD040008AD
:1000B000D1050008D1050008D1050008D1050008C8
:1000C0005FF808F180B588B000AF78600023FB616D
:1000D0000023BB6100237B6100233B610023FB60A5
:1000E0008A4B5B680C221340FB61FB69042B0CD02C
:1000F00002D8002B05D03AE0082B0AD00C2B32D0C6
:1001000035E07B68824A1A6035E07B68804A1A6075
:1001100031E07E4B5A68F0239B031340BB617B4B5D
:100120005A68C0235B0213407B61BB699B0C02339E
:10013000BB617B69002B05D1BB69764A5A437B685A
:100140001A6018E0714BDB6A0F22134001333B61E8
:1001500039696F4800F052FF03001A00BB695A4327
:100160007B681A6007E07B686B4A1A6003E07B6873
:10017000674A1A60C046654B5B68F0221340FB611A
:10018000FB691B09FB61654AFB69D3181B78DBB26D
:10019000FB607B681A68FB68DA407B685A605B4BDF
:1001A0005A68E023DB001340FB61FB691B0AFB611B
:1001B0005A4AFB69D3181B78DBB2FB607B685A682C
:1001C000FB68DA407B689A60504B1A6B80235B00B7
:1001D000134003D17B68524ADA6010E04B4B5A68F7
:1001E0008023DB01134005D17B689B685A087B683C
:1001F000DA6004E07B689B689A087B68DA60434BAE
:100200001B6B4022134003D17B68464A1A6103E00E
:100210007B68802212021A613C4B1B6B1022134038
:1002200003D17B683A4A5A6103E07B681A687B68AD
:100230005A61364B1B6B0322134004D17B689A68CA
:100240007B689A611EE0314B1B6B03221340012B2C
:1002500004D17B681A687B689A6113E02B4B1B6B97
:1002600003221340022B04D17B68802212029A6180
:1002700008E0264B1B6B03221340032B02D17B6843
:10028000234A9A61214B1A6BC0239B02134004D16D
:100290007B689A687B68DA6127E01C4B1A6BC02385
:1002A0009B021A4080235B029A4204D17B681A6841
:1002B0007B68DA6119E0154B1A6BC0239B021A4068
:1002C00080239B029A4204D17B6880221202DA6169
:1002D0000BE00E4B1A6BC0239B021A40C0239B02FB
:1002E0009A4202D17B680A4ADA61084B1B6B802272
:1002F000134003D17B68084A1A6203E07B681A68DE
:100300007B681A62C046BD4608B080BD001002403E
:1003100000127A0000093D00006CDC0200000020A1
:10032000809FD5001280000080B582B000AF786059
:100330000A00FB1C1A70FB1C1B78002B06D0094B13
:10034000084A51697A680A435A6106E0054B054A32
:1003500052697968C9430A405A61C046BD4602B035
:1003600080BDC0460010024080B582B000AF78600A
:100370000A00FB1C1A70FB1C1B78002B06D0094BD3
:10038000084A91697A680A439A6106E0054B054A72
:1003900092697968C9430A409A61C046BD4602B075
:1003A00080BDC0460010024080B582B000AF0200A0
:1003B000FB1D1A70064BFA1D127811001F220A400D
:1003C000012191400A001A60C046BD4602B080BDBE
:1003D00000E100E080B582B000AF0200FB1D1A70A2
:1003E000074AFB1D1B7819001F230B400121994070
:1003F0000B0019008023D150C046BD4602B080BD1D
:1004000000E100E080B500AF034B1B685A1C024BB3
:100410001A60C046BD4680BD680C002080B58AB019
:1004200002AF0823FB18180000F0FAFA8023DB0162
:1004300001211800FFF798FF80239B02012118007B
:10044000FFF772FF802399009023D80503230193BF
:10045000012300930023012200F084FC8023D900B3
:100460009023D80503230193012300930023012245
:1004700000F078FC0823FB18962292011A600823EA
:10048000FB1800225A600823FB1800229A600823F8
:10049000FB180022DA600823FB1800225A610823A7
:1004A000FB180C221A610823FB18124A19001000CD
:1004B00000F0FCF91B20FFF777FF3B1D1B221A7091
:1004C0003B1D01225A703B1D01229A703B1D1800F2
:1004D00000F03EFD0849074B0122180000F0ECFA3D
:1004E000044B0121180000F0B7FAC046BD4608B021
:1004F00080BDC046003801400501050080B582B0CE
:1005000000AFFB1D00221A70184BDB69202213403C
:1005100024D0164B9B8C9AB2FB1D1A70144B1B688F
:10052000591C134A1160134AF91D0978D154FB1D57
:100530001B780A2B03D0FB1D1B780D2B11D10D4B03
:10054000180000F065FE0A4B00221A608023DA00D2
:10055000084B0021180000F0DDFD02E01B20FFF732
:1005600039FFC046BD4602B080BDC04600380140DC
:10057000640C00206408002080B500AF00F044FB4C
:1005800000F0FCFAFFF74AFFFEE7C046002103E057
:100590000A4B5B584350043109480A4B42189A42AF
:1005A000F6D3094A02E0002313600432074B9A4253
:1005B000F9D300F0E3FAFFF7DFFF7047942B000850
:1005C000000000206408002064080020A80C00201F
:1005D000FEE7000080B586B000AF78603960002388
:1005E0007B6100233B610023FB6000237B6181E092
:1005F00001227B699A4013003B613B681B683A69A2
:100600001340FB60FA683B699A4270D13B681B79E2
:10061000012B03D03B681B79022B38D17B689B6888
:100620007A695200032191400A00D2431A407B6844
:100630009A607B689A683B685B7919007B695B000C
:1006400099400B001A437B689A607B689B889BB239
:100650007A691204120C012191400A0092B2D2432D
:1006600092B213409AB27B689A807B689B889BB257
:100670001AB23B689B7919007B691B041B0C9940DB
:100680000B001BB213431BB29AB27B689A807B6843
:100690001B687A695200032191400A00D2431A4034
:1006A0007B681A607B681A683B681B7919007B6954
:1006B0005B0099400B001A437B681A607B68DB681B
:1006C0007A691204120C5200032191400A00D243AD
:1006D0001A407B68DA607B68DA683B68DB7919006E
:1006E0007B695B0099400B001A437B68DA607B6989
:1006F00001337B617B690F2B00D879E7C046BD468B
:1007000006B080BD80B584B000AF786008001100ED
:10071000BB1C021C1A807B1C0A1C1A700023FB6085
:100720000023BB607B1C1A78BB1C1B8807210B4075
:100730009B009A401300FB60BB1C1B88DB089BB22C
:100740001800BB1C1B88DB089BB21A007B680832B0
:100750009200D358BA1C128807210A4092000F2138
:1007600091400A00D2431A4011007B68020008320F
:100770009200D150BB1C1B88DB089BB21A007B681F
:1007800008329200D258FB681343BB60BB1C1B8825
:10079000DB089BB21A007B6808329200B968D1501E
:1007A000C046BD4604B080BD80B584B000AF78605F
:1007B0000A4B1B68002B02D1084B094A1A60074BF1
:1007C0001B68FB60054B1A687B68D218034B1A60E4
:1007D000FB681800BD4604B080BDC0466C0C00200C
:1007E000A80C002080B582B000AF786001235B4286
:1007F0001800BD4602B080BD80B582B000AF786001
:1008000039603B68802292015A6000231800BD467F
:1008100002B080BD80B582B000AF786001231800BF
:10082000BD4602B080BDC04680B584B000AFF86060
:10083000B9607A6000231800BD4604B080BDC04690
:1008400080B584B000AFF860B9607A607B6818004A
:10085000BD4604B080BDC04680B586B000AFF8602C
:10086000B9607A6000237B6114E0C0460E4B8021A2
:10087000180000F065F9031EF8D0BB685A1CBA6076
:100880001B789BB2084A1900100000F003F97B693D
:1008900001337B617A697B689A42E6DB7B681800EA
:1008A000BD4606B080BDC0460038014080B58EB060
:1008B00000AF7860396000237B6300233B63002333
:1008C000FB627B681B68012293431A007B681A60F5
:1008D0007B685B68FB62FB6A4B4A1340FB623B68C8
:1008E0009B68FA6A1343FB627B68FA6A5A607B680A
:1008F0001B68FB62FB6A454A1340FB623B685A680F
:100900003B68DB681A433B681B691343FA6A13436D
:10091000FB627B68FA6A1A607B689B68FB62FB6A11
:100920003B4A1340FB623B685B69FA6A1343FB6214
:100930007B68FA6A9A600823FB181800FFF7C2FB6D
:100940007B68344A934204D10823FB189B693B63BC
:100950000CE07B68304A934204D10823FB18DB6922
:100960003B6303E00823FB189B683B637B681A68C2
:1009700080231B02134014D03B6B5A003B681B685A
:100980001900100000F03AFB03007B633B6B5A0038
:100990003B681B681900100000F0B6FB0B00FB62FF
:1009A00010E03B681B681900386B00F027FB030060
:1009B0007B633B681A683B6B1100180000F0A4FBD6
:1009C0000B00FB623B681B685A08FB6A9A4202D81C
:1009D0007B6B01337B637B681A6880231B021340A7
:1009E0000AD07B6B5B0807221340FB627B6B0B4AD0
:1009F0001A40FB6A13437B637B6B9AB27B689A81D4
:100A0000C046BD460EB080BDFFCFFFFFF3E9FFFF3C
:100A1000FFFCFFFF0038014000440040F0FF0000F1
:100A200080B582B000AF78607B68962292011A6030
:100A30007B6800225A607B6800229A607B680022F3
:100A4000DA607B680C221A617B6800225A61C0461A
:100A5000BD4602B080BDC04680B582B000AF7860B0
:100A60000A00FB1C1A70FB1C1B78002B06D07B684D
:100A70001B6801221A437B681A6006E07B681B68CA
:100A8000012293431A007B681A60C046BD4602B03B
:100A900080BDC04680B582B000AF78600A00BB1C44
:100AA0001A80BB1C1B88DB05DB0D9AB27B681A859C
:100AB000C046BD4602B080BD80B588B000AFF860CA
:100AC000B960FB1D1A700023BB6100237B6100230A
:100AD0003B610023FB61FB68FB61BB681B121A00D2
:100AE000FF231340BB61BB68FF2213407B610122DF
:100AF0007B699A4013003B61BB69022B03D1FB6900
:100B00000433FB6105E0BB69032B02D1FB690833A9
:100B1000FB61FB1D1B78002B06D0FB69FA6911688D
:100B20003A690A431A6006E0FB69FA691268396992
:100B3000C9430A401A60C046BD4608B080BDC046E1
:100B400080B584B000AF786039600F23FB180022B5
:100B50001A707B68DB693A68134004D00F23FB18D6
:100B600001221A7003E00F23FB1800221A700F23D2
:100B7000FB181B781800BD4604B080BD80B500AFDF
:100B80001B4B1B4A126801210A431A60184B184A72
:100B9000526818490A405A60154B154A126816499E
:100BA0000A401A60124B124A126814490A401A602D
:100BB0000F4B0F4A526812490A405A600C4B0C4ABC
:100BC000D26A0F218A43DA62094B094A126B0D4936
:100BD0000A401A63064B064A526B01218A435A6344
:100BE000034B00229A6000F079F8C046BD4680BDF4
:100BF000001002400CB8FFF8FFFFF6FEFFFFFBFFFE
:100C0000FFFFC0FFACFEFFFF80B584B000AF002344
:100C1000FB600023BB6000237B6000233B602A4B0A
:100C20005B680C221340FB60FB68042B07D0082B89
:100C300009D0002B31D1254B254A1A6031E0234BD6
:100C4000234A1A602DE0204B5A68F0239B0313407F
:100C5000BB601D4B5A68C0235B0213407B60BB68BE
:100C60009B0C0233BB607B68002B05D1BB68194A23
:100C70005A43164B1A6014E0134BDB6A0F221340E1
:100C800001333B603968124800F0B8F903001A00DC
:100C9000BB685A430D4B1A6003E00C4B0C4A1A60B8
:100CA000C046094B5B68F02213401B090A4AD35C1B
:100CB000DBB2FB60054B1A68FB68DA40034B1A6035
:100CC000C046BD4604B080BD0010024010000020A8
:100CD00000127A0000093D001400002080B500AF2A
:100CE0001D4B11221A601D4B1C4A52685A601B4B47
:100CF0001A4A52685A60194B184A526818490A40F1
:100D00005A60164B154A5268A02189030A435A605B
:100D1000124B124A1268802149040A431A60C046E5
:100D20000E4B1A6880239B041340F9D00B4B0B4ADF
:100D3000526803218A435A60084B084A52680221CC
:100D40000A435A60C046054B5B680C221340082BCF
:100D5000F9D1C046BD4680BD0020024000100240CF
:100D6000FF7FC0FF80B588B000AFF860B9601900A0
:100D7000FB1D1A70BB1D0A1C1A700023FB61FA6868
:100D80009023DB059A4206D180239B0201211800A3
:100D9000FFF7CAFA35E0FB68684A934206D1802320
:100DA000DB0201211800FFF7BFFA2AE0FB68644A62
:100DB000934206D180231B0301211800FFF7B4FAE8
:100DC0001FE0FB685F4A934206D180235B03012149
:100DD0001800FFF7A9FA14E0FB685B4A934206D1BA
:100DE00080239B0301211800FFF79EFA09E0FB68AE
:100DF000564A934205D18023DB0301211800FFF7F7
:100E000093FABB68802B00D151E010D8082B42D058
:100E100006D8022B39D0042B3AD0012B32D061E016
:100E2000202B3ED0402B3FD0102B37D05AE08022D1
:100E30001201934247D08022120193420CD88022A3
:100E40009200934239D08022D200934238D080223F
:100E5000520093422ED045E080229201934238D036
:100E600080229201934204D88022520193422DD0D5
:100E700038E08022D20193422ED080221202934287
:100E80002DD02FE00023FB612CE00123FB6129E042
:100E90000223FB6126E00323FB6123E00423FB61C3
:100EA00020E00523FB611DE00623FB611AE0072318
:100EB000FB6117E00823FB6114E00923FB6111E0EB
:100EC0000A23FB610EE00B23FB610BE00C23FB61AB
:100ED00008E00D23FB6105E00E23FB6102E00F2318
:100EE000FB61C046FB6999B2FB1D1A78FB681800CC
:100EF000FFF708FC1423FB18BA681A601423FB18C8
:100F000002221A711423FB18BA1D12789A71142345
:100F1000FB182822BA181278DA711423FB182C2235
:100F2000BA1812785A711423FA18FB6811001800C5
:100F3000FFF750FBC046BD4608B080BD0004004826
:100F400000080048000C0048001000480014004849
:100F500080B584B000AF78600023FB607B689B782D
:100F6000002B39D0244A7B681B789B08DBB2C03346
:100F70009B009B58FB607B681B781A00032313407F
:100F8000DB00FF229A401300DA43FB681340FB604A
:100F90007B685B789B01FF221A407B681B781900F5
:100FA00003230B40DB009A401300FA681343FB60F5
:100FB00011497B681B789B08DBB2C0339B00FA6841
:100FC0005A500D4B7A68127811001F220A400121F5
:100FD00091400A001A600AE007497B681B781A00F2
:100FE0001F23134001229A40130080228B50C046D9
:100FF000BD4604B080BDC04600E100E000224308C9
:101000008B4274D303098B425FD3030A8B4244D3D0
:10101000030B8B4228D3030C8B420DD3FF22090212
:1010200012BA030C8B4202D31212090265D0030BD1
:101030008B4219D300E0090AC30B8B4201D3CB03C7
:10104000C01A5241830B8B4201D38B03C01A524109
:10105000430B8B4201D34B03C01A5241030B8B420B
:1010600001D30B03C01A5241C30A8B4201D3CB02F6
:10107000C01A5241830A8B4201D38B02C01A5241DB
:10108000430A8B4201D34B02C01A5241030A8B42DE
:1010900001D30B02C01A5241CDD2C3098B4201D3F6
:1010A000CB01C01A524183098B4201D38B01C01A74
:1010B000524143098B4201D34B01C01A52410309EB
:1010C0008B4201D30B01C01A5241C3088B4201D39A
:1010D000CB00C01A524183088B4201D38B00C01A47
:1010E000524143088B4201D34B00C01A5241411A6E
:1010F00000D20146524110467047FFE701B500207B
:1011000000F006F802BDC0460029F7D076E7704728
:101110007047C04670B583073FD0541E002A3BD0AD
:10112000CEB20300032503E0621E002C34D014006D
:1011300001335A1E16702B42F6D1032C24D9FF25F9
:101140000D402A0215432A0415430F2C11D92600FD
:10115000103E3609013636011A009B19156055609C
:101160009560D56010329342F8D10F221440032CC1
:101170000AD9261FB6080136B6001A009B1920C2EC
:101180009342FCD103221440002C05D0C9B21C1993
:10119000197001339C42FBD170BD14000300CCE7F1
:1011A00030B5050089B008000C0000F03BF804AB36
:1011B000154A01930223069201220293AB6B05901C
:1011C0000130049407920390AC68002B17D00C22D6
:1011D000A35E80229201134205D11343A381626E64
:1011E0000A4B1340636601AA2100280000F0DAF8D8
:1011F000431E98410A234042184309B030BD2800DD
:1012000000F0C4F8E3E7C0468C2B0008FFDFFFFFC7
:1012100010B5034B01001868FFF7C2FF10BDC046B0
:101220005004002010B5830727D00378002B26D068
:101230000300032102E01A78002A1CD001330B427C
:10124000F9D119680F4A104C8A188A4322420FD1EB
:10125000043319680B4A8A188A43224208D104339E
:101260001968084A8A188A432242F1D000E0013303
:101270001A78002AFBD1181A10BD0300E1E70020FC
:10128000FAE7C046FFFEFEFE8080808010B502496E
:1012900000F016FA10BDC046C9230008F8B55F4635
:1012A00056464D464446344BF0B4C363B82300243D
:1012B00003229B00C45004334568C2500833C2184F
:1012C000043BC2500600042328002C606C60AC6014
:1012D000AB816C66EC812C616C61AC6108220021F1
:1012E0005C30FFF717FF254B254F9A462B62254BA5
:1012F000EF6299466B62244BED61AB62B56898462C
:1013000009232800AB81083B2C606C60AC606C66E4
:10131000EB812C616C61AC61082200215C309B4642
:10132000FFF7F8FE53462B624B466B624346EF6273
:10133000AB62ED61F56812232800AB81103BEB81B5
:101340002C606C60AC606C662C616C61AC610822D6
:1013500000215C30FFF7DEFE53462B624B466B628A
:101360004346AB625B46EF62ED61B3633CBC9046C3
:101370009946A246AB46F8BD8D1200080D22000822
:101380009D2200083522000871220008836B10B5E9
:10139000002B01D1FFF782FF10BDC0467047C04649
:1013A0007047C046F0B5564644465F464D46F0B4D9
:1013B000936885B001900C009246002B25D08B8954
:1013C0001A072AD50A69002A27D05246126893467E
:1013D0009A072FD5B74B002600259846002D00D13F
:1013E0006DE02B00454500D9B24B3200E169019810
:1013F000676AB847002800DC79E053469B683618D6
:101400002D1A181A53469860E8D1002005B03CBC4C
:1014100090469946A246AB46F0BD2100019800F0E7
:1014200057FF002800D03BE15246A389126893463B
:101430009A07CFD4DA0762D50023002799461D000A
:101440000293002F30D0029B002B00D1C3E02E006E
:10145000BD4200D93E0020682269B04663699042CF
:1014600007D9A26894469C4462460392664500DD13
:10147000EFE09E4200DA92E04A46E1690198666A2E
:10148000B0478046002832DD4346ED1A00D195E092
:101490004346FF1A534642469B68C1449B1A524634
:1014A0009360B2D0002FCED15B461B6899465B4655
:1014B0005F6808239C460023E3440293C1E75B4630
:1014C0001E685D6808239C46E34487E77A4B30003A
:1014D0009E4200D91800414601F06EFA43463A0098
:1014E0004343E1690198656AA847002823DC0C237F
:1014F000E25E402301201343A381404286E7002798
:101500000026002E23D080229200A568134225D009
:10151000A846AE425BD39022D200134268D1206825
:101520004246390000F022FC3000A3685D1B2368AE
:10153000A5604344236053469B683F18361A181A27
:101540005346986000D160E7A389002EDBD15A464C
:101550001768566808229446E344D2E72068236956
:10156000984203D8636998469E42AFD2B54200D9EB
:1015700035002A00390000F0F9FBA36822685B1BE4
:101580005219A3602260002B01D02800D3E721006C
:10159000019801F007F80028A9D12800CBE7320014
:1015A000494600F0E3FBA3689B1BA36023689C46AD
:1015B000434666442660ED1A00D069E72100019891
:1015C00000F0F0FF002892D10023029360E735007D
:1015D0002068B046A4E73A000A21484600F040FBE4
:1015E000002859D04B460130C51A012302932EE73B
:1015F00021692268521A9146626950008218D00F00
:101600008218521090464A46501C80194246404566
:1016100001D9804602005B052DD51100019800F02C
:1016200075F8051E3FD04A46216900F061FBA2898A
:10163000224B134080221343A381434628004A468D
:10164000484463619B1A256120603500A360B04661
:1016500066E76646494600F089FBB44623682100E8
:1016600063442360019800F09DFF002800D03EE70E
:10167000039B984608E7019800F0C8FB051EDCD1E3
:10168000019D2169280000F0F3FF8022A389934384
:101690001AB20C232B602CE701237D1C0293D6E6A3
:1016A00001204042B2E60C23019A13600C23E25E53
:1016B0001FE7C04600FCFF7FFFFFFF7F7FFBFFFFB0
:1016C000F8B54F464646C0B4B8278046BF004744E9
:1016D00089460026002F14D07B68BC685D1E0DD49F
:1016E000A389012B07D90E22A35E013303D0210069
:1016F0004046C84706436834013DF1D23F68002F99
:10170000EAD130000CBC90469946F8BDF0B55F4672
:101710004D4656464446F0B40D000B3583B00700E5
:10172000162D00D8A8E007239D4300D5CEE0A9429E
:1017300000D9CBE000F066FBF823FF339D4200D8D0
:1017400084E26B0A00D1C5E0042B00D96CE1382398
:10175000A9099C4601339846884443468C44590065
:10176000C94E890071180839CC68A14217D00323EB
:1017700062689A431300521B0F2A00DDB0E0032079
:10178000002A09DB8DE0636883435A1B0F2A00DDC2
:10179000A6E0002A00DB84E0E468A142F3D14346DE
:1017A0000093320034690832944200D18FE1032360
:1017B000616899430B00481B0F2800DD76E17261D8
:1017C0003261002871DAB14A914200D934E1012333
:1017D000C8088210934072681A43C3009B19986826
:1017E0007260E360A0609C601300C46001200099F7
:1017F0008A109040984200D975E003420CD1032230
:1018000091430A1D40000092034205D1009A400016
:10181000043200920342F9D003239846009AD30081
:101820009946B144CC4692466346DC68A44507D14C
:101830004FE1002A00DB5FE1E468A44500D148E104
:101840004246636893435A1B0F2AF2DD0121631954
:101850000D436560E068A5680836E860114385605F
:10186000F360B3603800DE609E6059609A5000F00B
:10187000CBFA2000083022E0102927D8380000F0E9
:10188000C1FA1025062302217F4E9B00F3181A008F
:101890005C68083A944200D127E1032362689A43C6
:1018A0001300E268A168CA6091600122E3185968D8
:1018B00038000A435A6000F0A7FA2000083003B04D
:1018C0003CBC90469946A246AB46F0BD0C23002096
:1018D0003B60F4E740239846013B80219C463FE76C
:1018E000634600935DE70323B46862689A439046B9
:1018F000AA4203D3521B0F2A00DD87E02300434492
:10190000634A0193634B93461B681268EB180132DC
:1019100000D157E1604A944663441B0B1B030093BC
:101920000099380000F060FC03008146013361D06B
:10193000019B834200D9FDE0584B009A9A461B68F0
:101940009C46534662441A60019B11004B4500D1EE
:1019500043E15B461B68013300D14FE14B46019ADE
:101960009B1A59185346196007234A46134000D161
:1019700017E1082189464A49D21A9144C91A009BA5
:1019800038004B441B051B0DCB1A19009B4600F079
:101990002BFC431C00D135E14B46C01A01235844AF
:1019A000184353461B685B441900534619604B4665
:1019B000B3605860B44213D043460F2B00D8E1E027
:1019C0004346072260680C3B9343063A02400520D9
:1019D0001A436260E218506090600F2B00D915E145
:1019E000304B1A68914200D919602F4B1A68914206
:1019F00000D919600323B46862689A431300521B2C
:101A00009D4200D9C1E00F2A00DCBEE0012329007D
:101A100065191943134361603800B5606B6000F0CD
:101A2000F3F9200008304AE7142B74D9542B00D95D
:101A3000B0E0290B6E238CE64A0A042A74D9142AD2
:101A400000D9C2E010005C325B30520008214942EC
:101A50008C469200B2189444624692680B318846D4
:101A6000944500D1A0E0414650688843834202D2A9
:101A700092689445F7D1D3689C4673686146A2602A
:101A8000E1608C60D460B1E654040020FF010000E6
:101A900060080020780C00200F1000007C0C002053
:101AA00008100000740C0020700C00200121631944
:101AB0000D430143656073613361DA609A60596078
:101AC0001850380000F0A0F920000830F7E67368DD
:101AD0008CE608239B46073BDC449B46DA4443469E
:101AE0005246134200D09FE633E0DC688A1C009225
:101AF000A34200D155E6D0E60122E3185968380028
:101B00000A435A60E368A268D3609A6000F07CF9E7
:101B100020000830D3E65B22944601329046984478
:101B20009C44434659001BE68A091000393238307C
:101B300052008BE7B44200D05CE7FDE6009B013B1E
:101B4000009308235B429C46E1444B469B689945C1
:101B50007AD14346009A1342F0D17368834373608D
:101B60004000984200D9BEE6002800D1BBE60342FF
:101B700070D152460092009A400004320092034213
:101B8000F9D04BE601234A465360380000F03CF997
:101B9000002094E6AA22520093420DD8E90B772345
:101BA000D7E580214901EAE601238010834072686D
:101BB00013437360624661E7284A934218D8A90C20
:101BC0007C23C6E510330093AAE6542A26D80A0BD4
:101BD00010006F326E30520038E71B0500D0B8E6B7
:101BE000009BB26843441800012303435360F7E6A7
:101BF0007F239846013BFE219C46B1E55B464A4661
:101C00001A60B1E6002301209B46CAE62100380095
:101C1000083100F02DFD53461968E1E6AA20400086
:101C2000824205D8CA0B10007832773052000DE797
:101C30000A48824205D88A0C10007D327C3052005E
:101C400004E7FE227E2001E7736889E7E9084B1C60
:101C50005B0019E653460093E0E5C04654050000DA
:101C600070B5CDB283073CD0531E002A1FD0027836
:101C7000AA421DD0032405E0002B18D00278013BB6
:101C8000AA4215D001302042F6D1032B11D8002BE7
:101C90000DD00278AA420BD0421CC01804E00132D9
:101CA000511E0978A9421AD013009042F7D10020A2
:101CB00070BDFF220C0212022240FF24214011437A
:101CC0000C04094E0C4302680849624051189143C4
:101CD0003142DED1043B0430032BF4D8D7E718009F
:101CE000E6E71300D1E7C04680808080FFFEFEFE5D
:101CF00070B50F2A32D90C0004430B00A40731D170
:101D000015000400103D2D0901352D0149191E68EB
:101D100026605E6866609E68A660DE681033E660D6
:101D200010349942F3D10F2345191340032B1BD9CB
:101D30001C1F0023A4080134A400CE58EE50043325
:101D40009C42FAD103232D1909191A4005D000230A
:101D5000CC5CEC5401339A42FAD170BD0500002AE4
:101D6000F5D1FAE70500F2E71A00F8E770B5884206
:101D70000BD98B18984208D2991A531E002A03D007
:101D8000CA5CC254013BFBD270BD0F2A09D80500C2
:101D9000002AF9D00023CC5CEC5401339A42FAD1EA
:101DA000F2E70C0004430B00A40726D11500040041
:101DB000103D2D0901352D0149191E6826605E6808
:101DC00066609E68A660DE681033E6601034994253
:101DD000F3D10F2445191440032C10D90023043CDF
:101DE000A4080134A400CE58EE5004339C42FAD12A
:101DF00003232D1909191A40CAE70500CAE7220072
:101E0000C6E7C0467047C0467047C046F0B5564664
:101E10004D4644465F46F0B4804685B00E1E91465E
:101E200000D1CBE03700083FFFF7ECFF7A684D4662
:101E3000032314000B35BA469C43162D4AD81023B1
:101E40001025A9454AD89C427BDAD34938198968BC
:101E50000190884200D1ECE040680100029001202E
:101E60000390080001218843019984468B46DC4495
:101E7000614601204968014200D17CE00121114204
:101E800031D049464046FFF741FC8146002800D149
:101E90009CE1012302007968083A99437F18BA420D
:101EA00000D13CE1221F242A00D929E10300132A92
:101EB00000D90BE1320011681960516859609268CD
:101EC0009A603100404600F0D3FB4046FFF79CFF8C
:101ED000484649E004339D432B1EB2DA0C234246A8
:101EE0000020136040E03A68BA1A9346594603222C
:101EF000496891430A00A21801929A42C1DB5B46ED
:101F00005A465F469268DB680837D3609A60221FA2
:101F1000242A00D910E13B00132A09D95B46316815
:101F200099607168D9601B2A00D921E11033083605
:101F30003268DA461A607268019C5A60B2683E00E4
:101F40009A60631B0F2B24D85346012152465B68CD
:101F50000B4023435360220052445368194351609D
:101F60004046FFF751FF300005B03CBC9046994613
:101F7000A246AB46F0BD032102988C468843011966
:101F800099421FDB019A0C00D3689268D3609A6073
:101F9000D7E7524650465119012240681040054388
:101FA0005046456018001043CB1848605868083107
:101FB00002435A60404600F05BFBD1E71100FFF797
:101FC000A5FBD1E70120104200D05AE760463A68ED
:101FD000BA1A93465268824389180291994200DAEC
:101FE00089E7019A5F46D36892680837D3609A60A0
:101FF0005B465A46DB689268D3609A60221F242AA7
:1020000000D991E03B00132A09D95B4631689960F9
:102010007168D9601B2A00D996E0103308363268FF
:10202000029C1A607268DA465A60B2683E009A6092
:1020300087E70320019984464968814328000919EC
:102040001030019081424BDAD20700D519E7604683
:102050003A68BA1A9346526882430198511802911D
:10206000884200DD47E75B465A465F469268DB6878
:102070000837D3609A60221F242A00D997E03B00DA
:10208000132A09D95B46316899607168D9601B2AA7
:1020900000D991E01033083632681A6072685A60CD
:1020A000B2689A605B4659193B4B40469960029B67
:1020B0005A1B01231A434A605A46526813401D4373
:1020C0005B465D60FFF7A0FE38004DE731680160B8
:1020D000716841601B2A17D8320008330832EAE6DB
:1020E0002D4B7A199A600123491B194351607A6874
:1020F000404613401D437D60FFF786FE300033E706
:102100003100FFF733FEDCE6B16803008160F1685F
:10211000C160242A22D0320010331032CBE653683B
:1021200003229343E4180CE731003800FFF71EFE4A
:102130003E00029CDA4604E731003800FFF716FE45
:102140003E00019CDA46FCE65B46B1681961F16825
:102150005961242A16D01833103660E7326903001B
:102160000261010032007069183318324861A2E63A
:102170005B46B1681961F1685961242A0ED01833A1
:102180001036D5E65B4632699A615A46716920334A
:10219000D161183643E7C046540400205B463269DB
:1021A0009A615A4671692033D1611836C0E6310010
:1021B0003800FFF7DBFD75E75B46B1681961F16830
:1021C0005961242A07D01833103665E74046FFF7D7
:1021D0001BFE0020C8E65B4632699A615A46716967
:1021E0002033D161183657E7002370B5064C05003F
:1021F00008002360FEF7D8FA431C00D070BD2368A6
:10220000002BFBD02B60F9E7A40C002070B50C006C
:102210000E25495F00F096FB002803DB236D1B1899
:10222000236570BDA289024B1340A381F9E7C04624
:10223000FFEFFFFFF8B516001F000C23CA5E050074
:102240000C00D30507D50E23C95E0022022300F03F
:10225000F1FA0C23E25E054B28001340A381320003
:102260000E23E15E3B0000F01FF8F8BDFFEFFFFF1B
:1022700070B50C000E25495F00F0DCFA431C06D057
:102280008022A38952011343A381206570BDA289D6
:10229000014B1340A381F9E7FFEFFFFF10B50E23B9
:1022A000C95E00F07FF810BD70B505000800110090
:1022B0000022064C22601A00FEF7CEFA431C00D022
:1022C00070BD2368002BFBD02B60F9E7A40C002025
:1022D000334B70B5050018680C00002802D0836BE2
:1022E000002B3DD00C23E05E83B21A070DD5216987
:1022F000002916D0DA0722D50023A36063690020E5
:102300005B42A361002922D070BDDA0640D55B078D
:1023100029D42169082203001343A3819BB2002919
:10232000E8D1A0228020920080001A408242E1D0B1
:102330002100280000F0C2FAA3892169DAE700220F
:102340009B0700D46269A26000200029DCD10C2226
:10235000A35E1A06D8D540221343A3810138D3E7E0
:10236000FFF714F8BEE7216B00290AD023004033A1
:10237000994204D0280000F07BF90C23E05E002392
:102380002363242398430023216963602160C1E70C
:1023900009232B60402303430120A3814042B3E77C
:1023A00050040020002370B5064C0500080023608F
:1023B000FEF718FA431C00D070BD2368002BFBD039
:1023C0002B60F9E7A40C002070B505000C1E08D0A6
:1023D000002802D0836B002B31D00C22A35E002B8F
:1023E00001D1002070BD2100280000F033F8E36A1D
:1023F0000600002B04D0E16928009847002821DB63
:10240000A3891B0621D4216B002908D02300403367
:10241000994202D0280000F02BF900232363616C5D
:10242000002904D0280000F023F900236364FEF79C
:10243000B5FF0023A381FEF7B3FF3000D2E7FEF71C
:10244000A5FFCAE701267642DAE72169280000F0F5
:102450000FF9D8E7F0B5474680B40C228B5E804672
:102460009AB20C00110740D4802212011343626813
:10247000A381002A00DC70E0A66A002E31D042461B
:102480004146156800229BB20A60DA0400D469E074
:10249000226D5B0706D56368D21A236B002B01D02F
:1024A000E36BD21A0023E1694046B047431C3DD09C
:1024B000A2893A4B13400022626022691BB2A381B9
:1024C0002260DB0447D44346216B1D60002908D0FD
:1024D00023004033994202D0404600F0C9F800235F
:1024E0002363002004BC9046F0BD2669002EF8D07E
:1024F000236826609D1B0023920700D16369A360B7
:10250000002D04DCEDE736182D1A002DE9DD2B0037
:102510003200E1694046676AB8470028F3DC40238F
:102520000120A28940421343A381DBE74346196897
:102530001D29F4D81A4B0122CB409A43EFD1A6892A
:10254000164B6260334022691BB2A3812260DB0418
:10255000B9D50029B7D12065B5E7E26B002A00DDC7
:102560008AE7BEE700220123E1694046B047020046
:10257000431C02D0A389A66A8BE743461B68002B45
:10258000F8D01D2B01D0162B03D1434600201D602F
:10259000A8E74023A1890B43A381A3E7FFF7FFFF2F
:1025A0000100402070B504000D00002802D0836BAC
:1025B000002B09D00C22AB5E0020002B03D0290099
:1025C0002000FFF747FF70BDFEF7E0FEF2E7C046D0
:1025D000F8B50C000600FFF715FC204FBB685D68DE
:1025E00003239D431E4B2C1B9C466444240B1D4B14
:1025F000013C24039C4207DD00213000FFF7F4FD7D
:10260000BB685B19984204D03000FFF7FDFB002047
:10261000F8BD61423000FFF7E7FD431C0DD00123F8
:102620002D1BBA681D43104B55601A683000141BEF
:102630001C60FFF7E9FB0120EAE700213000FFF70B
:10264000D3FDBB68C21A0F2ADEDD08490968401AAB
:102650000549086001210A435A60D5E75404002067
:10266000EF0F0000FF0F00007C0C0020600800202E
:10267000F0B54746050080B40C1E3ED0FFF7C2FB04
:1026800001232100984608394E6842463300032052
:102690009343CC186268824360488768BC425AD032
:1026A0004746626037420BD10827BC460E68844417
:1026B000891B9B198E68664566D0CF68F760BE603F
:1026C0000126A7187F68374236D0554A1E434E6010
:1026D000CB50934214D8DB08FF3A9C10FF3AA2403B
:1026E0004468DB002243426018188368C8608B602E
:1026F0008160D9602800FFF787FB04BC9046F0BDDD
:102700005A0A042A4FD89C09260039343836640006
:10271000A4000419083CA268032794424AD05068D8
:10272000B843834202D292689442F8D1D468CC6014
:102730008A60A160D160DDE79B183A4FA268BA4277
:1027400040D0E4681E43D460A260354A4E60CB504E
:102750009342D5D8BFE79B184246324206D10A6859
:10276000891A8C689B18CA68E260946001242E4A1A
:102770001C4312684C6081609342BBD32B4B2800F2
:102780001968FFF725FFB5E74646A01840683042B4
:102790003ED1A068D318E268C260906042461A43F6
:1027A0004A60CB50A6E7142A14D816005C325B3678
:1027B0005400ADE70123B610B340426813434360B1
:1027C0002200B4E71E43D1609160CA608A604E6007
:1027D000CB508FE7542A05D81C0B26006F346E3679
:1027E000640095E7AA246400A24205D8DC0B260009
:1027F0007834773664008BE70D4CA24205D89C0CE8
:1028000026007D347C36640082E7FE247E267FE746
:1028100042461A434A60CB506CE7C046540400203D
:10282000FF0100005C0400205C080020780C002000
:102830005405000070B50500080011000022064C88
:1028400022601A00FDF7F0FF431C00D070BD236822
:10285000002BFBD02B60F9E7A40C002070B50C0016
:102860001E000E23C95E90B01500002915DB01AAD9
:1028700000F07CF8002810DBF023029A1B021340C2
:102880000D4A8020944663445A425341336080236A
:10289000DB002B60000110B070BD00233360A38902
:1028A0001B0603D5402300202B60F4E78023DB00C8
:1028B0002B600020EFE7C04600E0FFFF70B58B897A
:1028C00082B005000C009B0707D52300433323602B
:1028D00023610123636102B070BD01AB6A46FFF75B
:1028E000BDFF009906002800FEF710FF00281CD04D
:1028F0008022134BEB63A38920601343009A1BB221
:102900006261019AA3812061002A02D13343A3812D
:10291000E1E70E23E15E280000F03CF800280CD02F
:102920000122A3891A4313B2F0E70C22A35E9A0591
:10293000D1D402221343A381C7E70C22A35EE5E7AB
:102940008D12000870B50500080011000022064C29
:1029500022601A00FDF774FF431C00D070BD23688D
:10296000002BFBD02B60F9E7A40C0020002370B5EE
:10297000074C0500080011002360FDF73DFF431CD4
:1029800000D070BD2368002BFBD02B60F9E7C04658
:10299000A40C0020002370B5064C0500080023603D
:1029A000FDF738FF431C00D070BD2368002BFBD01F
:1029B0002B60F9E7A40C002003460B437FD40022D0
:1029C00043088B4274D303098B425FD3030A8B42C3
:1029D00044D3030B8B4228D3030C8B420DD3FF222D
:1029E000090212BA030C8B4202D31212090265D0FB
:1029F000030B8B4219D300E0090AC30B8B4201D3AE
:102A0000CB03C01A5241830B8B4201D38B03C01AF4
:102A10005241430B8B4201D34B03C01A5241030B6B
:102A20008B4201D30B03C01A5241C30A8B4201D31C
:102A3000CB02C01A5241830A8B4201D38B02C01AC7
:102A40005241430A8B4201D34B02C01A5241030A3E
:102A50008B4201D30B02C01A5241CDD2C3098B4223
:102A600001D3CB01C01A524183098B4201D38B01A0
:102A7000C01A524143098B4201D34B01C01A524143
:102A800003098B4201D30B01C01A5241C3088B4288
:102A900001D3CB00C01A524183088B4201D38B0073
:102AA000C01A524143088B4201D34B00C01A524115
:102AB000411A00D201465241104670475DE0CA0FEC
:102AC00000D04942031000D34042534000229C46AC
:102AD00003098B422DD3030A8B4212D3FC228901B6
:102AE00012BA030A8B420CD3890192118B4208D38C
:102AF000890192118B4204D389013AD0921100E0EE
:102B00008909C3098B4201D3CB01C01A5241830901
:102B10008B4201D38B01C01A524143098B4201D32E
:102B20004B01C01A524103098B4201D30B01C01A59
:102B30005241C3088B4201D3CB00C01A52418308D3
:102B40008B4201D38B00C01A5241D9D243088B4229
:102B500001D34B00C01A5241411A00D201466346CC
:102B600052415B10104601D34042002B00D5494230
:102B7000704763465B1000D3404201B50020FEF76A
:102B8000C7FA02BD0029F8D016E770470A00000016
:042B900043000000FE
:102B940000000000010203040102030406070809FF
:102BA400006CDC02000000000000000001020304CD
:102BB40006070809000000000000000014030020BC
:102BC4007C030020E403002000000000000000005B
:102BD40000000000000000000000000000000000F1
:102BE400000000000000000000000000902B00081E
:102BF40000000000000000000000000000000000D1
:102C040000000000000000000000000000000000C0
:102C140000000000000000000000000000000000B0
:102C240000000000000000000000000000000000A0
:102C34000000000000000000000000000000000090
:102C44000000000000000000000000000000000080
:102C54000000000000000000000000000000000070
:102C640001000000000000000E33CDAB34126DE60D
:102C7400ECDE05000B000000000000000000000076
:102C84000000000000000000000000000000000040
:102C94000000000000000000000000000000000030
:102CA4000000000000000000000000000000000020
:102CB4000000000000000000000000000000000010
:102FE400280000200000000000000000540400201D
:102FF400540400205C0400205C04002064040020CD
:10300400640400206C0400206C040020740400207C
:10301400740400207C0400207C040020840400202C
:10302400840400208C0400208C04002094040020DC
:10303400940400209C0400209C040020A40400208C
:10304400A4040020AC040020AC040020B40400203C
:10305400B4040020BC040020BC040020C4040020EC
:10306400C4040020CC040020CC040020D40400209C
:10307400D4040020DC040020DC040020E40400204C
:10308400E4040020EC040020EC040020F4040020FC
:10309400F4040020FC040020FC04002004050020AB
:1030A400040500200C0500200C0500201405002058
:1030B400140500201C0500201C0500202405002008
:1030C400240500202C0500202C05002034050020B8
:1030D400340500203C0500203C0500204405002068
:1030E400440500204C0500204C0500205405002018
:1030F400540500205C0500205C05002064050020C8
:10310400640500206C0500206C0500207405002077
:10311400740500207C0500207C0500208405002027
:10312400840500208C0500208C05002094050020D7
:10313400940500209C0500209C050020A405002087
:10314400A4050020AC050020AC050020B405002037
:10315400B4050020BC050020BC050020C4050020E7
:10316400C4050020CC050020CC050020D405002097
:10317400D4050020DC050020DC050020E405002047
:10318400E4050020EC050020EC050020F4050020F7
:10319400F4050020FC050020FC05002004060020A6
:1031A400040600200C0600200C0600201406002053
:1031B400140600201C0600201C0600202406002003
:1031C400240600202C0600202C06002034060020B3
:1031D400340600203C0600203C0600204406002063
:1031E400440600204C0600204C0600205406002013
:1031F400540600205C0600205C06002064060020C3
:10320400640600206C0600206C0600207406002072
:10321400740600207C0600207C0600208406002022
:10322400840600208C0600208C06002094060020D2
:10323400940600209C0600209C060020A406002082
:10324400A4060020AC060020AC060020B406002032
:10325400B4060020BC060020BC060020C4060020E2
:10326400C4060020CC060020CC060020D406002092
:10327400D4060020DC060020DC060020E406002042
:10328400E4060020EC060020EC060020F4060020F2
:10329400F4060020FC060020FC06002004070020A1
:1032A400040700200C0700200C070020140700204E
:1032B400140700201C0700201C07002024070020FE
:1032C400240700202C0700202C07002034070020AE
:1032D400340700203C0700203C070020440700205E
:1032E400440700204C0700204C070020540700200E
:1032F400540700205C0700205C07002064070020BE
:10330400640700206C0700206C070020740700206D
:10331400740700207C0700207C070020840700201D
:10332400840700208C0700208C07002094070020CD
:10333400940700209C0700209C070020A40700207D
:10334400A4070020AC070020AC070020B40700202D
:10335400B4070020BC070020BC070020C4070020DD
:10336400C4070020CC070020CC070020D40700208D
:10337400D4070020DC070020DC070020E40700203D
:10338400E4070020EC070020EC070020F4070020ED
:10339400F4070020FC070020FC070020040800209C
:1033A400040800200C0800200C0800201408002049
:1033B400140800201C0800201C08002024080020F9
:1033C400240800202C0800202C08002034080020A9
:1033D400340800203C0800203C0800204408002059
:1033E400440800204C0800204C0800200000020083
:0433F400FFFFFFFFD9
:0400000508000000EF
:00000001FF
